{
  "contractName": "FashionVoting",
  "abi": [
    {
      "inputs": [],
      "name": "fashionLookCount",
      "outputs": [
        {
          "internalType": "uint256",
          "name": "",
          "type": "uint256"
        }
      ],
      "stateMutability": "view",
      "type": "function"
    },
    {
      "inputs": [
        {
          "internalType": "uint256",
          "name": "",
          "type": "uint256"
        }
      ],
      "name": "fashionLooks",
      "outputs": [
        {
          "internalType": "string",
          "name": "imageUrl",
          "type": "string"
        },
        {
          "internalType": "uint256",
          "name": "voteCount",
          "type": "uint256"
        }
      ],
      "stateMutability": "view",
      "type": "function"
    },
    {
      "inputs": [
        {
          "internalType": "string",
          "name": "_imageUrl",
          "type": "string"
        }
      ],
      "name": "addFashionLook",
      "outputs": [],
      "stateMutability": "nonpayable",
      "type": "function"
    },
    {
      "inputs": [
        {
          "internalType": "uint256",
          "name": "_lookId",
          "type": "uint256"
        }
      ],
      "name": "voteFashionLook",
      "outputs": [],
      "stateMutability": "nonpayable",
      "type": "function"
    },
    {
      "inputs": [],
      "name": "getTopFashionLooks",
      "outputs": [
        {
          "components": [
            {
              "internalType": "string",
              "name": "imageUrl",
              "type": "string"
            },
            {
              "internalType": "uint256",
              "name": "voteCount",
              "type": "uint256"
            }
          ],
          "internalType": "struct FashionVoting.FashionLook[]",
          "name": "",
          "type": "tuple[]"
        }
      ],
      "stateMutability": "view",
      "type": "function"
    }
  ],
  "bytecode": "0x608060405234801561001057600080fd5b50610acb806100206000396000f3fe608060405234801561001057600080fd5b50600436106100575760003560e01c80635c1380c31461005c5780636a98e3c71461007857806395af476414610096578063d060e638146100b2578063fd7ccf4a146100d0575b600080fd5b610076600480360381019061007191906105d2565b610101565b005b610080610180565b60405161008d9190610803565b60405180910390f35b6100b060048036038101906100ab9190610591565b610186565b005b6100ba6101f5565b6040516100c79190610791565b60405180910390f35b6100ea60048036038101906100e591906105d2565b6103ab565b6040516100f89291906107b3565b60405180910390f35b60008111801561011357506001548111155b610152576040517f08c379a0000000000000000000000000000000000000000000000000000000008152600401610149906107e3565b60405180910390fd5b600080828152602001908152602001600020600101600081548092919061017890610997565b919050555050565b60015481565b6001600081548092919061019990610997565b919050555060405180604001604052808281526020016000815250600080600154815260200190815260200160002060008201518160000190805190602001906101e4929190610457565b506020820151816001015590505050565b6060600060015467ffffffffffffffff81111561023b577f4e487b7100000000000000000000000000000000000000000000000000000000600052604160045260246000fd5b60405190808252806020026020018201604052801561027457816020015b6102616104dd565b8152602001906001900390816102595790505b5090506000600190505b60015481116103a3576000808281526020019081526020016000206040518060400160405290816000820180546102b490610965565b80601f01602080910402602001604051908101604052809291908181526020018280546102e090610965565b801561032d5780601f106103025761010080835404028352916020019161032d565b820191906000526020600020905b81548152906001019060200180831161031057829003601f168201915b505050505081526020016001820154815250508260018361034e91906108e5565b81518110610385577f4e487b7100000000000000000000000000000000000000000000000000000000600052603260045260246000fd5b6020026020010181905250808061039b90610997565b91505061027e565b508091505090565b60006020528060005260406000206000915090508060000180546103ce90610965565b80601f01602080910402602001604051908101604052809291908181526020018280546103fa90610965565b80156104475780601f1061041c57610100808354040283529160200191610447565b820191906000526020600020905b81548152906001019060200180831161042a57829003601f168201915b5050505050908060010154905082565b82805461046390610965565b90600052602060002090601f01602090048101928261048557600085556104cc565b82601f1061049e57805160ff19168380011785556104cc565b828001600101855582156104cc579182015b828111156104cb5782518255916020019190600101906104b0565b5b5090506104d991906104f7565b5090565b604051806040016040528060608152602001600081525090565b5b808211156105105760008160009055506001016104f8565b5090565b60006105276105228461084f565b61081e565b90508281526020810184848401111561053f57600080fd5b61054a848285610923565b509392505050565b600082601f83011261056357600080fd5b8135610573848260208601610514565b91505092915050565b60008135905061058b81610a7e565b92915050565b6000602082840312156105a357600080fd5b600082013567ffffffffffffffff8111156105bd57600080fd5b6105c984828501610552565b91505092915050565b6000602082840312156105e457600080fd5b60006105f28482850161057c565b91505092915050565b60006106078383610736565b905092915050565b600061061a8261088f565b61062481856108b2565b9350836020820285016106368561087f565b8060005b85811015610672578484038952815161065385826105fb565b945061065e836108a5565b925060208a0199505060018101905061063a565b50829750879550505050505092915050565b600061068f8261089a565b61069981856108c3565b93506106a9818560208601610932565b6106b281610a6d565b840191505092915050565b60006106c88261089a565b6106d281856108d4565b93506106e2818560208601610932565b6106eb81610a6d565b840191505092915050565b60006107036017836108d4565b91507f496e76616c69642066617368696f6e206c6f6f6b2049440000000000000000006000830152602082019050919050565b600060408301600083015184820360008601526107538282610684565b91505060208301516107686020860182610773565b508091505092915050565b61077c81610919565b82525050565b61078b81610919565b82525050565b600060208201905081810360008301526107ab818461060f565b905092915050565b600060408201905081810360008301526107cd81856106bd565b90506107dc6020830184610782565b9392505050565b600060208201905081810360008301526107fc816106f6565b9050919050565b60006020820190506108186000830184610782565b92915050565b6000604051905081810181811067ffffffffffffffff8211171561084557610844610a3e565b5b8060405250919050565b600067ffffffffffffffff82111561086a57610869610a3e565b5b601f19601f8301169050602081019050919050565b6000819050602082019050919050565b600081519050919050565b600081519050919050565b6000602082019050919050565b600082825260208201905092915050565b600082825260208201905092915050565b600082825260208201905092915050565b60006108f082610919565b91506108fb83610919565b92508282101561090e5761090d6109e0565b5b828203905092915050565b6000819050919050565b82818337600083830152505050565b60005b83811015610950578082015181840152602081019050610935565b8381111561095f576000848401525b50505050565b6000600282049050600182168061097d57607f821691505b6020821081141561099157610990610a0f565b5b50919050565b60006109a282610919565b91507fffffffffffffffffffffffffffffffffffffffffffffffffffffffffffffffff8214156109d5576109d46109e0565b5b600182019050919050565b7f4e487b7100000000000000000000000000000000000000000000000000000000600052601160045260246000fd5b7f4e487b7100000000000000000000000000000000000000000000000000000000600052602260045260246000fd5b7f4e487b7100000000000000000000000000000000000000000000000000000000600052604160045260246000fd5b6000601f19601f8301169050919050565b610a8781610919565b8114610a9257600080fd5b5056fea264697066735822122081c3c24964751f5240f1ad392a9c6f3ae9402668c21b3425cb752a4ff3edea8964736f6c63430008000033",
  "immutableReferences": {},
  "source": "// contracts/FashionVoting.sol\n// SPDX-License-Identifier: MIT\npragma solidity ^0.8.0;\n\ncontract FashionVoting {\n    struct FashionLook {\n        string imageUrl;\n        uint voteCount;\n    }\n\n    mapping(uint => FashionLook) public fashionLooks;\n    uint public fashionLookCount;\n\n    function addFashionLook(string memory _imageUrl) public {\n        fashionLookCount++;\n        fashionLooks[fashionLookCount] = FashionLook(_imageUrl, 0);\n    }\n\n    function voteFashionLook(uint _lookId) public {\n        require(_lookId > 0 && _lookId <= fashionLookCount, \"Invalid fashion look ID\");\n        fashionLooks[_lookId].voteCount++;\n    }\n\n    function getTopFashionLooks() public view returns (FashionLook[] memory) {\n        FashionLook[] memory topLooks = new FashionLook[](fashionLookCount);\n        for (uint i = 1; i <= fashionLookCount; i++) {\n            topLooks[i - 1] = fashionLooks[i];\n        }\n        return topLooks;\n    }\n}\n",
  "sourcePath": "/Users/pauline/Documents/EncodeClubSolidityFinalProject/contracts/FashionVoting.sol",
  "compiler": {
    "name": "solc",
    "version": "0.8.0+commit.c7dfd78e.Emscripten.clang"
  },
  "schemaVersion": "3.4.16",
  "updatedAt": "2024-07-20T15:04:58.665Z",
  "devdoc": {
    "kind": "dev",
    "methods": {},
    "version": 1
  },
  "userdoc": {
    "kind": "user",
    "methods": {},
    "version": 1
  }
}